:03000000020512E4
:0C051200787FE4F6D8FD7581730205596E
:100B120020524320004175746F0054696D65007363
:050B22003A00673A00F3
:10088100025E0000016200016000016100015D0083
:0C089100C105C100C101C102C103C104C6
:1009C600D28AD2AA120A91120B651209EB120A53A5
:1009D6007F147E00120ACA120A531201A3120016CD
:0509E60012059E80F2E5
:10001600E4F532F53375225475234975244D75255B
:100026004575263AE50AC4540F2430F527E50A54E7
:100036000F2430F52875293AE509C4540F2430F504
:100046002AE509540F2430F52B752C3AE508C454DB
:100056000F2430F52DE508540F2430F52E752F208A
:100066007B007A007922E4FDFF120A31E561600324
:10007600020484E55D6402705D30075AD20575227C
:100086002075235375244575255475263AE511C404
:10009600540F2430F527E511540F2430F52875291F
:1000A6003AE510C4540F2430F52AE510540F2430D5
:1000B600F52B752C3AE50FC4540F2430F52DE50FBA
:1000C600540F2430F52E752F207B007A0079227D7F
:1000D60001E4FF02019F30050E7F01120BAD7F0583
:1000E6007E00120ACAC205E55D14600F146014246E
:1000F60002701D7BFF7A0B7912800E7BFF7A0B79DB
:100106001780067BFF7A0B791C7D017F0C120A3162
:100116007BFF7A0B79217D01E4FF120A317B007A9D
:10012600007922AF5FAE5E1203DF8F32C3E53294F1
:100136000374809480500CAF32053274222FF87607
:100146002080E974222532F8E4F6FB7A0079227DD4
:10015600017F02120A317BFF7A0B79247D017F062B
:10016600120A317B007A007922AF1AAE191203DF28
:100176008F32C3E532940374809480500CAF3205FD
:100186003274222FF8762080E974222532F8E4F6BC
:0C019600FB7A0079227D017F08120A31FB
:0101A200223A
:10059E00D3E55F951AE5196480F8E55E64809840AE
:1005AE000CD2A8C2A5D2A6D2A3C2A48027C3E55F4F
:1005BE00951AE5196480F8E55E648098500CD2A80F
:1005CE00D2A5C2A6C2A3D2A4800AD2A5D2A6D2A375
:1005DE00D2A4C2A8AF5D7E00EF64017007309129EE
:1005EE00F55E802EEF64024E702BE511B50A26E5FE
:1005FE0010B50921E50FB5081CE4F55DD3E55F9450
:10060E0078E55E648094804006E4F55EF55F2275C1
:06061E005E00755FF02292
:1001A300E4F52220B4227F0AFE120ACA30001BC2E1
:1001B30000055DD3E55D9402748094804003E4F50B
:1001C3005D7F01120BAD8002D20020B5237F0A7E32
:1001D30000120ACA30011BC2010561D3E561940311
:1001E300748094804003E4F5617F01120BAD8002BB
:1001F300D20120B6747F0A7E00120ACA30026CC292
:1002030002E5616044C374039561F522E51164233B
:10021300600B740F2522F8E6FF64597009740F25EB
:1002230022F8E4F68045EF540F64097014740F2527
:1002330022F874F726F6740F2522F8741026F68038
:100243002A740F2522F8068022741E255FF55FE4C9
:10025300355EF55ED3E55F94F0E55E64809480409F
:100263000A755E00755FF08002D20220B7717F0AC3
:100273007E00120ACA300369C203E5616047C37492
:10028300039561F522240FF8E6FF7018E522640256
:100293007009740F2522F876238046740F2522F8FF
:1002A3007659803DEF540F7014740F2522F874F0C3
:1002B30026F6740F2522F8740926F68024740F2578
:1002C30022F816801C74E2255FF55F74FF355EF536
:1002D3005EC3648094805009E4F55EF55F8002D2CA
:1002E3000320903F7F0A7E00120ACA300437C204FB
:1002F3000562D3E5629402748094804003E4F5625E
:10030300AF627E00EF7006F55EF55F8013EF640168
:100313004E7007F55E755F788006755E00755FF059
:05032300D2A822D20463
:0103280022B2
:1004840075342075355375364575375475383AAF1C
:10049400617E00EF6401700B300608753920753AEF
:1004A400208011E511C4540F2430F539E511540F9F
:1004B4002430F53A753B3AEF64024E700B3006086F
:1004C400753C20753D208011E510C4540F2430F58F
:1004D4003CE510540F2430F53D753E3AE561640364
:1004E400700B300608753F207540208011E50FC45D
:1004F400540F2430F53FE50F540F2430F540754177
:0E050400207B007A0079347D01E4FF020A3189
:03001300020B518C
:100B510085195E851A5F755D00D2A5D2A6D2A3D292
:040B6100A4C2A83250
:040837008F698D6ACE
:10083B00E4F56BF56C120B8BE56925E0FF1209777C
:10084B005012AF6C056CEF9432748094805005128B
:10085B000B3C80E1AF6A120977120B8BE56925E03F
:10086B004401FF12097712099F8F6BD20A120B9C5E
:05087B00120B3CAF6B05
:010880002255
:060911008F6D8D6E8B6FEF
:10091700E4F570120B8BE56D25E0FF120977501295
:10092700AF700570EF9432748094805005120B3CC1
:0F09370080E1AF6E120977AF6F120977020B3CA8
:0A0624008F488D498B4A8A4B894CA0
:10062E00E4F54E120B8BE54825E0FF1209775012C8
:10063E00AF4E054EEF9432748094805005120B3CF1
:10064E0080E1AF49120977120B8BE54825E0440192
:10065E00FF120977D3E54D940174809480401E12E9
:10066E00099FAB4A054CE54CAA4B7002054B14F999
:10067E00EF120342C20A120B9C154D80D712099F2E
:10068E00AB4AAA4BA94CEF120342D20A120B9C02A0
:02069E000B3C13
:0A078E008F4F8D508B518A52895312
:10079800E4F555D3E5549400748094804042120BDC
:1007A8008BE54F25E0FF1209775012AF550555EF3D
:1007B8009432748094805005120B3C80E1AF500550
:1007C80050120977AB510553E553AA5270020552EE
:1007D80014F9120329FF120977120B3C155480B340
:0107E80022EE
:0A06A0008F568D578B588A59895ADE
:1006AA00E4F55CC374FF9557D3955B40037F002242
:1006BA00D3E55B940074809480404F120B8BE5560F
:1006CA0025E0FF1209775012AF5C055CEF94327493
:1006DA008094805005120B3C80E1AF57120977D302
:1006EA00E55B940074809480401BAB58055AE55A28
:1006FA00AA597002055914F9120329FF120977053C
:0C070A0057155B80DA120B3C80A67F01C3
:0107160022C0
:100ACA00D3EF9401EE9400400F7D027CEFDCFEDD53
:080ADA00FCEF1F70EB1E80E829
:010AE20022F1
:100B8B00D296D29700000000C29700000000C296D8
:010B9B002237
:100977007E80EE601B5F7004C2978002D2970000F2
:100987000000D29600000000C296EEC313FE80E27C
:07099700120B279208A208D1
:01099E002236
:100B2700D29700000000D296A29792090000000019
:040B3700C296A209B7
:010B3B002297
:10099F00E4FFD2977E80EE601D00000000D29630FB
:1009AF00970442078004EEF4520700000000C2963D
:0609BF00EEC313FE80E010
:0109C500220F
:100B9C00A20A929700000000D29600000000C296B4
:010BAC002226
:100B3C00C296C29700000000D29600000000D29727
:050B4C00000000002282
:0E0BBD0081838587898B8D80828486888A8CCF
:10089D00070800000814090220070F0000000000DF
:0208AD00000049
:060A0F00C292C293D292D4
:100A1500E4FEEEC3940874809480500FEF13929413
:0B0A2500EFC313FFD293C2930E80E7D3
:010A300022A3
:100AE3007F01E4FEEF600F3094024206D293C2937B
:080AF300EF25E0FF80EEAF06E5
:010AFB0022D8
:0B0BCB00120A0FAF05120A15C2922299
:0A0BD600E4FE120A0F120AE3C292B5
:010BE00022F2
:1009EB00E4F522120A53C3E52294077480948050D5
:1009FB001274082522F8E6FF740F2522F8A60705C6
:030A0B002280E363
:010A0E0022C5
:100A5300E4FDEDC39407748094805012ED900BBDB8
:0E0A630093FF120BD674082DF8A6070D80E441
:010A71002262
:100A72007580FFC2A0D2A1D2A2AF80C2A20547E573
:0E0A820047D39432748094805004EF20E7E94B
:010A90002243
:100BAD00AE07120A72C2A0C2A18E80D2A2C2A22228
:060AFC0014F9120329FFAA
:100B0200AE07120A72D2A0C2A18E80D2A2C2A222C3
:100B65007F38120BAD7F0C120BAD7F06120BAD7FDC
:040B750001020BADC1
:100B7900AE07ED6005EE24C08001EE4480FF120B44
:020B8900AD229B
:100A31008B448A458946120B79AB44AA45A94612D3
:100A41000329600D0546E54670020545120AFC8042
:020A5100E82299
:0607E9008F638D648B6537
:1007EF00E4FDEDC39408748094805030E565244097
:1007FF00FFE433FEED2403FCEFA804088006CEA22D
:10080F00E713CE13D8F8FF120BADAB660568E5689A
:10081F00AA6770020567120AFC0D80C6AD64AF634C
:08082F00120B79AF65020B0208
:0A03DF008E348F358B368A3789384B
:1003E900E4F539F53AC3E53464809480501CC3E4DC
:1003F9009535F535E49534F5340538E53870020559
:100409003714F9742D120342053AAE34AF357C0026
:100419007D0A120354ED2430FFAE390539743B2EA1
:10042900F8A607AE34AF357C007D0A1203548E342A
:100439008F35D3E5359400E5346480948050CBE55D
:1004490039253AF53AAF391539D3EF9400748094C8
:1004590080401B743B2539F8E6FFAB360538E53893
:10046900AA377002053714F9EF12034280D7AB3669
:0A047900AA37A938E4120342AF3A93
:010483002256
:060717008B718A728973E8
:10071D00EFC4540FFED3940974809480500EEE24D0
:10072D0030FD0573E573701405728010EE2437FDEE
:10073D00AB710573E573AA727002057214F9ED12AF
:10074D000342EF540FFED39409748094805012EE3F
:10075D002430FFAB710573E573AA727014057280B6
:10076D0010EE2437FFAB710573E573AA72700205A5
:10077D007214F9EF120342AB71AA72A973E402036A
:01078D004229
:1008AF00041B0000000002190000C106C107011659
:0708BF000001170001180001
:100A9100D2A5D2A6D2A3D2A4D28853890F43890169
:0F0AA100758A9C758CFFC28DD2A9D2AFD28C22E0
:03000600E4FFFE16
:0100090022D4
:03000300020AB03E
:100AB000C0E030B00AE51A151A700C151980080547
:0A0AC0001AE51A70020519D0E032A1
:03000B00020946A1
:02094600C0E00F
:10094800C2A90516E51664C8700605170518F51638
:10095800E517640A7004F517B206E51864647004B4
:0C096800F518B207758A9C758CFFD2A9A7
:03097400D0E0329E
:0308C600011F010E
:1008CA00EF6003751F01E51F603730B40C30B509BE
:1008DA0030B60630B7032090287F0A7E00120ACA73
:1008EA00E4F51F20B4037F012220B5037F022220F2
:1008FA00B6037F032220B7037F04222090067F05D8
:06090A0022751F017F00B1
:0109100022C4
:10051E000209C6E493A3F8E493A34003F68001F224
:10052E0008DFF48029E493A3F85407240CC8C333DE
:10053E00C4540F4420C8834004F456800146F6DFAD
:10054E00E4800B0102040810204080900881E47EB4
:10055E00019360BCA3FF543F30E509541FFEE493A2
:10056E00A360010ECF54C025E060A840B8E493A369
:10057E00FAE493A3F8E493A3C8C582C8CAC583CA94
:10058E00F0A3C8C582C8CAC583CADFE9DEE780BE4C
:0108C900002E
:10032900BB010689828A83E0225002E722BBFE02D2
:09033900E32289828A83E4932205
:10034200BB010689828A83F0225002F722BBFE019A
:02035200F32294
:10035400C2D5EC30E709B2D5E4C39DFDE49CFCEEC4
:1003640030E715B2D5E4C39FFFE49EFE12038AC3AF
:10037400E49DFDE49CFC800312038A30D507C3E4AA
:060384009FFFE49EFE2233
:10038A00BC000BBE0029EF8DF084FFADF022E4CC57
:10039A00F875F008EF2FFFEE33FEEC33FCEE9DEC20
:1003AA00984005FCEE9DFE0FD5F0E9E4CEFD22ED66
:1003BA00F8F5F0EE8420D21CFEADF075F008EF2FB0
:1003CA00FFED33FD4007985006D5F0F222C398FDA1
:0503DA000FD5F0EA223E
:00000001FF
